:020000040800F2
:10000000500B002045010008AD310008AF31000859
:10001000B3310008B7310008BB3100080000000010
:10002000000000000000000000000000BF310008D8
:10003000C131000800000000C33100083F33000850
:100040005F0100085F0100085F0100085F01000810
:100050005F0100085F0100082B34000841340008EC
:100060005F0100085F0100085F0100085F010008F0
:100070005F0100085F0100085F0100085F010008E0
:100080005F0100085F0100085F0100085F010008D0
:100090005F0100085F0100085F0100085F010008C0
:1000A0005F010008C53100085F0100085F0100081A
:1000B0005F0100085F0100085F0100085F010008A0
:1000C0005F0100085F0100085F0100085F01000890
:1000D0005F01000847330008B93300085F010008DA
:1000E0005F0100085F0100085F0100085F01000870
:1000F0005F0100085F0100085F0100085F01000860
:100100005F0100085F0100085F0100085F0100084F
:100110005F0100085F0100085F0100085F0100083F
:100120005F0100085F0100085F0100085F0100082F
:10013000DFF80CD004F058FA00480047B12F00084F
:10014000500B00200648804706480047FEE7FEE7C0
:10015000FEE7FEE7FEE7FEE7FEE7FEE7FEE7FEE777
:1001600047020008310100080CB500200190009002
:100170006C48006840F480306A49086000BF6948F4
:10018000006800F4003000900198401C0190009835
:1001900018B90198B0F5A06FF1D16248006800F479
:1001A000003010B10120009001E000200090009884
:1001B000012843D15C48006840F010005A490860AB
:1001C0000846006820F0030008600846006840F018
:1001D0000200086053484068524948600846406839
:1001E00048600846406840F48060486008464068BF
:1001F00020F47C1048600846406840F4E8104860ED
:100200000846006840F08070086000BF45480068FC
:1002100000F000700028F9D04248406820F0030048
:10022000404948600846406840F00200486000BF0E
:100230003C48406800F00C000828F9D10CBD10B50E
:10024000FFF792FF10BD10B53648006840F001007E
:1002500034490860084640683449084031494860DC
:1002600008460068324908402E4908600846006880
:1002700020F4802008600846406820F4FE004860B2
:100280004FF41F008860FFF7DAFF4FF00060294944
:10029000086010BD10B5002100200022214B5B68D2
:1002A00003F00C0121B1042906D0082928D107E068
:1002B000214B224C236027E01F4B204C236023E07E
:1002C000184B5B6803F47010164B5B6803F48032C4
:1002D000022303EB904022B9194B4343174C236090
:1002E0000DE0104B5B6803F4003323B1144B434320
:1002F000124C236003E0104B4343104C236003E097
:100300000D4B0E4C236000BF00BF064B5B68C3F370
:1003100003130C4CE15C094B1B68CB40074C23607A
:1003200010BD000000100240002002400000FFF855
:10033000FFFFF6FE08ED00E000127A00000000204A
:1003400000093D000400002031490143314A116099
:10035000704770B5002100230F22C47804B32D4CE0
:10036000246804F4E064C4F5E064210AC1F10403E4
:10037000CA40447804FA03F1847814402143090107
:10038000254C0678A155047804F01F050124AC40E3
:1003900005786D11AD0005F1E025C5F8004109E0D3
:1003A000047804F01F050124AC401C4D067876113A
:1003B00045F8264070BD1A4A0A400243154B1B1FE0
:1003C0001A60704739B1134A121D12680243114B6B
:1003D0001B1D1A6006E00F4A121D126882430D4B66
:1003E0001B1D1A607047042808D14FF0E0210969ED
:1003F00041F004014FF0E022116107E04FF0E021ED
:10040000096921F004014FF0E022116170470000FA
:100410000000FA050CED00E000E400E080E100E0FF
:1004200080FFFF1F002044490860091D0860091D66
:100430000860091D086041483F4914310860704751
:1004400000213D498279002A3AD00A4612680368A1
:100450009A430B461A600A1D126803689A430B1DE3
:100460001A60027911440A6803681A430A60324A22
:100470000832126803689A432F4B08331A601A1D1A
:10048000126803689A432C4B0C331A604279102A85
:100490000ED11A1F126803681A43274B08331A60DB
:1004A0001A1D126803681A43234B0C331A600DE0BF
:1004B0002149427911440A6803681A430A6005E039
:1004C000027911440A6803689A430A607047002160
:1004D000016001710C214171002181717047164941
:1004E000103109680143144A103211607047014607
:1004F0000020114A143212680A400AB1012000E0BB
:10050000002070470C4914310860704701460020F4
:100510000022094B1B6803EA0102074B14331B68D6
:100520000B4013B10AB1012000E0002070470249DE
:10053000143108607047000000040140FFFF0F0005
:1005400001460020FE4A106800F0380008431060A1
:100550007047FB49096821F00801F94A116011460A
:100560000968014311607047F549096821F01001DD
:10057000F34A116011460968014311607047F14860
:10058000EF494860F04848607047EE48EC494860E1
:10059000ED4848607047EA48006940F08000E8494B
:1005A00008617047E648006940F08000E44908614E
:1005B00070470420E249C96801F0010109B1012036
:1005C0000EE0DF49C96801F0040109B1022007E02B
:1005D000DB49C96801F0100109B1032000E00420E3
:1005E000704700B502460423FFF7E3FF034603E02C
:1005F000FFF7DFFF0346521E012B01D1002AF7D17E
:1006000002B90523184600BD30B5044604254FF451
:100610003020FFF7E6FF0546042D17D1C8480069D2
:1006200040F00200C649086108464461006940F094
:10063000400008614FF43020FFF7D3FF0546C04863
:10064000006941F6FD710840BD490861284630BD8A
:1006500010B504244FF43020FFF7C3FF0446042CE8
:1006600016D1B748006940F00400B5490861084652
:10067000006940F0400008614FF43020FFF7B1FFFF
:100680000446AF48006941F6FB710840AC49086177
:10069000204610BD00B502460423FFF78AFF03463B
:1006A00003E0FFF786FF0346521E012B01D1002A0B
:1006B000F7D102B90523184600BD10B504244FF444
:1006C0003020FFF7E7FF0446042C16D19C48006950
:1006D00040F004009A4908610846006940F0400073
:1006E00008614FF43020FFF7D5FF044694480069B5
:1006F00041F6FB71084092490861204610BD002078
:100700008F49C96901F0020109B1012000E0002010
:10071000704730B5A5250424FFF7F1FF00B100258F
:100720004FF43020FFF75DFF0446042C3AD1854892
:1007300083498860844888600846006940F020004A
:1007400008610846006940F0400008614FF430201D
:10075000FFF747FF0446042C1BD17948006941F696
:10076000DF710840764908610846006940F01000D2
:10077000086176480580E002FFF733FF0446052C48
:1007800010D06F48006941F6EF7108406C4908616C
:1007900008E0052C06D06A48006941F6EF71084070
:1007A00067490861204630BD78B506460C460425E9
:1007B00000200090E802FFF714FF0546042D24D125
:1007C0005F48006940F001005D4908613480E8023B
:1007D000FFF707FF0546042D10D1B01C0090200C38
:1007E00000990880E802FFF7FCFE054654480069BE
:1007F00041F6FE7108405249086106E05048006920
:1008000041F6FE7108404E490861284678BD70B532
:1008100004460D460426F002FFF7E3FE0646042ECA
:1008200011D14748006940F0010045490861258021
:10083000F002FFF7D6FE06464148006941F6FE7118
:1008400008403F490861304670BD70B505460E4608
:100850000424E002FFF7C5FE0446042C17D13948F2
:1008600037498860384888600846006940F01000C1
:1008700008612E80E002FFF7B4FE0446052C06D086
:100880002F48006941F6EF7108402D490861204664
:1008900070BD2DE9F04304464FF6FF763746B0466B
:1008A000B1460425E443E6B2C4F30727C4F307487E
:1008B0004FEA1469E802FFF794FE0546042D49D17A
:1008C00020481F498860204888600846006940F039
:1008D00010000861FF2E06D01C4808300680E80290
:1008E000FFF77FFE0546042D08D1FF2F06D01748DD
:1008F0000A300780E802FFF774FE0546042D0AD18E
:10090000B8F1FF0F07D011480C30A0F80080E802C2
:10091000FFF767FE0546042D0AD1B9F1FF0F07D096
:100920000A480E30A0F80090E802FFF75AFE05468C
:10093000052D0FD00248006941F6EF71084007E02D
:100940000020024023016745AB89EFCD00F8FF1F6F
:10095000664908612846BDE8F08330B505460424A1
:100960004FF43020FFF73DFE0446042C41D160488F
:100970005E4988605F4888600846006940F0200052
:1009800008610846006940F0400008614FF43020DB
:10099000FFF727FE0446042C22D15448006941F693
:1009A000DF710840514908610846006940F01000B5
:1009B00008611DB100205049088002E0A5204E4981
:1009C00008804FF43020FFF70CFE0446052C10D0B1
:1009D0004648006941F6EF7108404449086108E063
:1009E000052C06D04148006941F6DF7108403F49B7
:1009F0000861204630BDF0B505460E461746042472
:100A00003B483A4988603B488860E002FFF7E9FDCF
:100A10000446042C19D13548006940F010003349D0
:100A2000086147F0F800304328433349891C0880A7
:100A3000E002FFF7D6FD0446052C06D02B480069DE
:100A400041F6EF710840294908612046F0BD27486A
:100A5000C069800870472548006A70470020234914
:100A6000096801F0200109B1012000E00020704771
:100A700029B11E4A126902431C4B1A6104E01B4A49
:100A800012698243194B1A617047014600200129FF
:100A900008D1164AD26902F001020AB1012008E029
:100AA000002006E0114AD2680A400AB1012000E0A5
:100AB000002070470D49C860704704200B49C96881
:100AC00001F0010109B101200EE00849C96801F0F7
:100AD000040109B1022007E00449C96801F01001CE
:100AE00009B1032000E0042070470000002002400C
:100AF00023016745AB89EFCD00F8FF1F10B5044611
:100B0000CC48844208D10121042000F02DFB0021B3
:100B1000042000F029FB46E0C748844208D10121A7
:100B2000082000F021FB0021082000F01DFB3AE026
:100B3000C248844208D10121102000F015FB002199
:100B4000102000F011FB2EE0BD48844208D10121A5
:100B5000202000F009FB0021202000F005FB22E00E
:100B6000B848844208D10121402000F0FDFA00215C
:100B7000402000F0F9FA16E0B348844208D1012180
:100B8000802000F0F1FA0021802000F0EDFA0AE068
:100B9000AE48844207D10121801500F0E5FA00211A
:100BA000A01500F0E1FA10BD10B50121084600F0D3
:100BB000DBFA0021012000F0D7FA10BD2DE9F04149
:100BC000024600250026002000230024002791F87B
:100BD00003C00CF00F0591F803C00CF0100CBCF131
:100BE000000F03D091F802C04CEA050591F800C04F
:100BF000BCF1000F31D0146800202BE04FF0010C45
:100C00000CFA00F3B1F800C00CEA03069E4220D1B2
:100C100083004FF00F0C0CFA03F7BC4305FA03FCFA
:100C20004CEA040491F803C0BCF1280F06D14FF040
:100C3000010C0CFA00FCC2F814C00AE091F803C0E1
:100C4000BCF1480F05D14FF0010C0CFA00FCC2F8C2
:100C500010C0401C0828D1D31460B1F800C0BCF10A
:100C6000FF0F34DD546800202EE000F1080C4FF037
:100C7000010808FA0CF3B1F800C00CEA03069E4222
:100C800021D183004FF00F0C0CFA03F7BC4305FA97
:100C900003FC4CEA040491F803C0BCF1280F05D111
:100CA00000F1080C08FA0CF8C2F8148091F803C09F
:100CB000BCF1480F07D100F1080C4FF0010808FA09
:100CC0000CF8C2F81080401C0828CED35460BDE850
:100CD000F0814FF6FF710180022181700421C17003
:100CE00070470246002093680B400BB1012000E0E2
:100CF000002070470146886880B270470246002095
:100D0000D3680B400BB1012000E000207047014682
:100D1000C86880B2704701617047416170470AB18D
:100D2000016100E041617047C16070474FF480325B
:100D30000A438261816182618269826970470246E9
:100D40000020434B18684FF68073184040EA0210A9
:100D500008433F4B186070473E49C8617047F0B583
:100D60000A46002300240021002500F00046B6F1C9
:100D7000004F02D1364EF16901E0354E7168C0F383
:100D8000034583B200F44016B6F5401F08D121F0A8
:100D900070612F4E766826F070662D4F7E6012E0EF
:100DA00000F48016B6F5801F06D1032606FA05F476
:100DB000A14341F0706106E0460D360103FA06F6E4
:100DC000B14341F0706122B1460D360103FA06F6D7
:100DD000314300F00046B6F1004F02D11C4EF161E4
:100DE00001E01B4E7160F0BD30B500228B071C0F77
:100DF0000F2303FA04F2164B08338C1053F82430F7
:100E00009343134C08348D1044F8253023468C103E
:100E100053F824308C07240F00FA04F423430C4CBD
:100E200008348D1044F8253030BD0A49DC310860A3
:100E30007047000000080140000C01400010014014
:100E40000014014000180140001C01400020014036
:100E50000000014000002042DF48006840F001002F
:100E6000DD49086008464068DC490840DA494860C6
:100E700008460068DA490840D74908600846006813
:100E800020F4802008600846406820F4FE00486096
:100E90004FF41F0088607047CF49096821F4803102
:100EA000CD4A11601146096821F480211160B0F526
:100EB000803F03D0B0F5802F0ED106E0C649096807
:100EC00041F48031C44A116007E0C349096841F424
:100ED000A021C14A116000E000BF00BF704710B5FB
:100EE00001460022002300204A11012A02D1BA4CF7
:100EF000236806E0022A02D1B74C236A01E0B64C0F
:100F0000636A01F01F02012494401C400CB10120CF
:100F100000E0002010BD38B500200090002400251E
:100F200000BF3120FFF7DBFF05460098401C009012
:100F30000098B0F5A06F01D0002DF2D03120FFF75E
:100F4000CEFF08B1012400E00024204638BD014650
:100F50000020A14A106820F0F80040EAC1001060AB
:100F60007047A04908607047024600209A4B5868B5
:100F700020F47C1042EA01031843974B58607047F5
:100F800098490866704701460020934A506820F04F
:100F900003000843506070478F48406800F00C0021
:100FA0007047014600208C4A506820F0F00008434A
:100FB0005060704701460020874A506820F4E06086
:100FC00008435060704701460020834A506820F46F
:100FD000605040EAC1005060704729B17E4A527AA1
:100FE00002437D4B5A7204E07B4A527A82437A4B29
:100FF0005A7270477B49D83108607047014600201B
:10100000754A506820F44040084350607047002102
:10101000714A20321170704A82F82010012802D0E3
:1010200004280AD104E001216B4A2032117005E046
:101030000521694A2032117000E000BF00BF7047EF
:101040006949086070476449096A0143624A11624C
:101050007047654944390860704730B50021002267
:10106000002400235C4D6D6805F00C0121B10429BA
:1010700005D0082923D105E05C4D056022E05B4DD9
:1010800005601FE0544D6D6805F47012524D6D6897
:1010900005F48034022505EB92421CB9544D5543AA
:1010A00005600BE04C4D6D6805F400351DB1504DE9
:1010B0005543056002E04D4D5543056002E04B4D40
:1010C000056000BF00BF444D6D6805F0F0010909DF
:1010D000484D6B5C0568DD4045603F4D6D6805F42B
:1010E000E061090A434D6B5C4568DD4085603A4D1F
:1010F0006D6805F46051C90A3E4D6B5C4568DD4082
:10110000C560354D6D6805F44041890B3A4D6B5C07
:10111000C568B5FBF3F5056130BD29B12E4A5269AA
:1011200002432D4B5A6104E02B4A526982432A4BF9
:101130005A61704729B1284A92690243264B9A6145
:1011400004E0254A92698243234B9A61704729B192
:10115000214AD2690243204BDA6104E01E4AD26977
:1011600082431D4BDA61704729B11B4AD2680243A2
:10117000194BDA6004E0184AD2688243164BDA60F1
:10118000704729B1144A12690243134B1A6104E0F3
:10119000114A12698243104B1A6170471249403953
:1011A000086070470F49C86470470B49C8717047A1
:1011B0000948406A40F0807007494862704701461C
:1011C0000020054A92680A400AB1012000E0002090
:1011D0007047014988727047001002400000FFF814
:1011E000FFFFF6FE000042428004424200127A00F5
:1011F00000093D00140000202400002010B5044622
:10120000FE48844208D10121C014FFF7ADFF002140
:10121000E014FFF7A9FFC4E0B4F1804F08D1012129
:101220000846FFF7AEFF00210120FFF7AAFFB8E054
:10123000F348844208D101210220FFF7A2FF0021D8
:101240000220FFF79EFFACE0EE48844208D1012166
:101250000420FFF796FF00210420FFF792FFA0E093
:10126000E948844208D101210820FFF78AFF0021C4
:101270000820FFF786FF94E0E448844208D101216A
:101280001020FFF77EFF00211020FFF77AFF88E093
:10129000DF48844208D101212020FFF772FF00219E
:1012A0002020FFF76EFF7CE0DA48844208D101215C
:1012B0004014FFF759FF00216014FFF755FF70E05D
:1012C000D548844209D10121C804FFF74DFF002110
:1012D0004FF40020FFF748FF63E0D048844209D173
:1012E00001210805FFF740FF00214FF48010FFF7B0
:1012F0003BFF56E0CA48844209D101214805FFF767
:1013000033FF00214FF40010FFF72EFF49E0C548DE
:10131000844208D101214020FFF733FF0021402003
:10132000FFF72FFF3DE0C048844208D10121802013
:10133000FFF727FF00218020FFF723FF31E0BB48A4
:10134000844208D101218015FFF71BFF0021A01561
:10135000FFF717FF25E0B648844209D101210804B0
:10136000FFF702FF00214FF48030FFF7FDFE18E089
:10137000B048844209D101214804FFF7F5FE00215D
:101380004FF40030FFF7F0FE0BE0AB48844208D189
:1013900001218804FFF7E8FE00214FF48020FFF7C9
:1013A000E3FE10BD00220288944B98420ED0994B68
:1013B00098420BD0B0F1804F08D0914B984205D0A5
:1013C000904B984202D0904B984204D14FF68F73C5
:1013D0001A404B881A438D4B984207D08C4B984249
:1013E00004D04FF6FF431A40CB881A4302808B8803
:1013F00083850B880385814B98420BD0854B98429F
:1014000008D08B4B984205D08A4B984202D08A4B29
:10141000984201D10B7A038601238382704770B50D
:10142000002400220023058C4FF6FE76354005840B
:10143000028C8388048B4FF68F752C40B51E2C4090
:101440000D882C43751E2A400D892A434D882A4356
:101450006A4DA8420BD06F4DA84208D0744DA842E7
:1014600005D0744DA84202D0734DA84213D14FF657
:10147000F7752A404D892A434FF6FB752A408D881F
:101480002A434FF6FF652B404FF6FF552B408D89C1
:101490002B43CD892B4383800483CD8885860284AA
:1014A00070BD70B5002400220023058C4FF6EF7646
:1014B00035400584028C8388048B48F6FF752C40E8
:1014C0004FF6FF452C400D884FF6FF7606EA0525BE
:1014D0002C434FF6DF752A400D8906EA05152A438D
:1014E0004D8806EA05152A43444DA84202D0494DCD
:1014F000A8421DD14FF67F752A404D894FF6FF76E1
:1015000006EA05152A434FF6BF752A408D8806EA7C
:1015100005152A434FF6FF352B404FF2FF752B4040
:101520008D8906EA85052B43CD8906EA85052B437F
:1015300083800483CD880587028470BD70B5002444
:1015400000220023058C4FF6FF6635400584028C8F
:101550008388848B4FF68F752C404FF6FC752C409A
:101560000D882C434FF6FF552A400D894FF6FF7624
:1015700006EA05252A434D8806EA05252A431F4D1C
:10158000A84202D0234DA8421DD14FF2FF752A4038
:101590004D894FF6FF7606EA05252A434FF6FF35BB
:1015A0002A408D8806EA05252A434EF6FF752B4012
:1015B0004DF6FF752B408D8906EA05152B43CD8925
:1015C00006EA05152B4383808483CD8885870284B2
:1015D00070BD70B5002200230024058C4EF6FF7606
:1015E00035400584038C8488828B48F6FF752A4039
:1015F0004FF6FF452A400D8820E00000002C0140F6
:101600000004004000080040000C004000100040B2
:101610000014004000340140004C014000500140E3
:101620000054014000180040001C00400020004011
:101630000040014000440140004801404FF6FF7661
:1016400006EA05252A434DF6FF752B400D8906EA6B
:1016500005352B434D8806EA05352B43FA4DA84244
:1016600002D0FA4DA84208D14BF6FF752C408D8967
:101670004FF6FF7606EA85152C4384808283CD8859
:10168000A0F84050038470BD828B4FF2FF331A40A4
:101690008283828B4FF6FF7303EA01231A4382830E
:1016A0007047F0B50C461546002200210026078C35
:1016B0004EF6FF7C07EA0C070784828B018C4FF6FD
:1016C000FF7707EA043640F6FF473A404FF6FF77C8
:1016D00007EA05273A434FF6FF7707EA03373A430D
:1016E000D94FB8420ED0D94FB8420BD0B0F1804F8D
:1016F00008D0D74FB84205D0D64FB84202D0D64F07
:10170000B84206D14DF6FF77394046F48057394349
:1017100005E047F6FF57394044F480573943828348
:101720000184F0BD828B4FF6F3731A408283828B63
:101730000A4382837047F0B50C461546002200210B
:101740000026078C4FF6FF6C07EA0C070784828B94
:10175000018C4FF6FF7707EA04264FF60C773A40E4
:101760004FF6FF7707EA03172F433A43B64FB842C5
:101770000ED0B64FB8420BD0B0F1804F08D0B44F66
:10178000B84205D0B34FB84202D0B34FB84206D1E9
:101790004FF6FF57394046F48077394305E04FF262
:1017A000FF57394044F48077394382830184F0BD88
:1017B000028B4FF2FF331A400283028B4FF6FF7306
:1017C00003EA01231A4302837047F0B50C4615461D
:1017D000002200210026078C4FF6EF7C07EA0C0759
:1017E0000784028B018C4FF6FF7707EA041640F658
:1017F000FF473A404FF6FF7707EA03373A434FF681
:10180000FF7707EA05273A438F4FB8420ED08F4F34
:10181000B8420BD0B0F1804F08D08D4FB84205D000
:101820008C4FB84202D08C4FB84206D14FF6DF77CA
:10183000394046F01007394305E04FF65F773940ED
:1018400044F01007394302830184F0BD028B4FF648
:10185000F3731A400283028B0A4302837047F0B588
:101860000C46154600220021068C4FF6FE773E40BE
:101870000684028B018C4FF60C7632407E1C06EA01
:1018800003162E433243704EB0420ED06F4EB0421C
:101890000BD0B0F1804F08D06D4EB04205D06D4EE8
:1018A000B04202D06C4EB04206D14FF6FD763140C8
:1018B00044F00106314305E04FF6F576314044F03F
:1018C0000106314302830184F0BD70B505460C4624
:1018D0005D4885420ED05D4885420BD0B5F1804F02
:1018E00008D05B48854205D05A48854202D05A4804
:1018F000854200D100E000BF208850B92389A2882A
:1019000061882846FFF7ABFFE1882846FFF79EFF76
:1019100025E0208804280AD12389A28861882846E6
:10192000FFF753FFE1882846FFF742FF17E02088C2
:1019300008280AD12389A28861882846FFF7FBFE80
:10194000E1882846FFF7EEFE09E02389A288618836
:101950002846FFF7A6FEE1882846FFF795FE70BDF2
:101960002DE9F04105460C4600260127608808B99C
:10197000022600E00026A088012801D1022700E00D
:1019800001272088A0B92389A28861882846FFF70B
:1019900066FFE1882846FFF759FF23893A4631461A
:1019A0002846FFF712FFE1882846FFF701FF13E002
:1019B0002389A28861882846FFF707FFE188284627
:1019C000FFF7F6FE23893A4631462846FFF747FFE0
:1019D000E1882846FFF73AFFBDE8F0810A884B8886
:1019E0001A438B881A43CB881A430B891A434B89B5
:1019F0001A438B891A43A0F8442070474FF6FF71B1
:101A0000818000210180C1804180017270470021E6
:101A1000018041808180C180018141818181C181BA
:101A20007047002101804180012181800021C18017
:101A3000018170470021018041808180C180018146
:101A40004181818170470000002C01400034014039
:101A50000004004000080040000C004021B1028852
:101A600042F00102028004E002884FF6FE731A4041
:101A70000280704731B1B0F8442042F40042A0F82F
:101A8000442005E0B0F84420C2F30E02A0F8442040
:101A900070471AB183890B43838102E083898B43AA
:101AA000838170478182704741EA0203A0F8483081
:101AB00070471AB183890B43838102E083898B438A
:101AC0008381704701894FF6F87211400181704798
:101AD0000A46002101894FF68F7319401143018195
:101AE000704730B504460D4629462046FFF7F0FF03
:101AF000208940F00700208130BD2DE9F0410446E7
:101B00000D4616461F46602D06D13B460122314642
:101B10002046FFF75AFE05E03B46012231462046AB
:101B2000FFF79DFE29462046FFF7D2FF208940F0AF
:101B300007002081BDE8F08130B50C460021018905
:101B4000C9B24FF6FF7505EA03251543254329431E
:101B5000018130BD2DE9F04105460E4617469846F5
:101B6000002443463A4631462846FFF7E5FF2C89D4
:101B70004FF6F870044044F007044FF68F700440AD
:101B800044F070042C81BDE8F081F0B504460D46A8
:101B900016461F463B46324629462046FFF7CCFFF5
:101BA000208940F480402081F0BD01858282704709
:101BB0000A46002101884FF68F73194011430180B6
:101BC0007047F0B50C4615461E4600210022002342
:101BD0000189028B038C4FF6F877394021434FF689
:101BE000FC473A4040F201173A434FF6DD773B405D
:101BF0004FF6FF7707EA06172F433B430181028325
:101C00000384F0BD0A460021018B4FF68F73194003
:101C10001143018370470A460021018B48F6FF7388
:101C200019404FF6FF7303EA0223194301837047FB
:101C30000A460021818B4FF68F731940114381832F
:101C400070470A460021818B48F6FF7319404FF612
:101C5000FF7303EA022319438183704721B102888D
:101C600042F08002028004E002884FF67F731A403F
:101C70000280704721B1828842F00402828004E031
:101C800082884FF6FB731A408280704721B18288A8
:101C900042F00802828004E082884FF6F7731A400F
:101CA0008280704721B1828842F00102828004E084
:101CB00082884FF6FE731A40828070470A460021E0
:101CC000018B4FF6F77319401143018370470A46A1
:101CD0000021018B4FF2FF7319404FF6FF7303EAA7
:101CE00002231943018370470A460021818B4FF676
:101CF000F77319401143818370470A460021818B95
:101D00004FF2FF7319404FF6FF7303EA02231943A2
:101D1000818370470A460021018B4FF6FB731940FF
:101D20001143018370470A460021018B4FF6FF33B0
:101D300019404FF6FF7303EA0223194301837047EA
:101D40000A460021818B4FF6FB73194011438183B2
:101D500070470A460021818B4FF6FF3319404FF63A
:101D6000FF7303EA02231943818370470A46002167
:101D7000018B4FF67F7319401143018370470A4668
:101D80000021018BC1F30E014FF6FF7303EA02231A
:101D90001943018370470A460021818B4FF67F73F8
:101DA00019401143818370470A460021818BC1F39A
:101DB0000E014FF6FF7303EA022319438183704734
:101DC0000A460021018C4FF6FD731940114301842E
:101DD00070470A460021018C4FF6F77319401143F2
:101DE000018470470A460021018C4FF6DF731940C9
:101DF0004FF6FF7303EA02131943018470470A4642
:101E00000021018C4FF67F7319404FF6FF7303EAF0
:101E100002131943018470470A460021018C4FF6D2
:101E2000FF5319404FF6FF7303EA0223194301845D
:101E300070470A460021018C4FF2FF7319404FF69C
:101E4000FF7303EA02231943018470470A46002105
:101E5000018C4DF6FF7319404FF6FF7303EA02330E
:101E600019430184704730B5002301248C40A3B28C
:101E7000048C9C430484048C02FA01F5ADB22C431B
:101E8000048430BD30B5002304248C40A3B2048CFC
:101E90009C430484048C02FA01F5ADB22C43048403
:101EA00030BD70B5034600200024184618300125C7
:101EB0008D40ACB21D8CA5431D8409B1082909D100
:101EC00000EB6100056825F07005056005681543A5
:101ED00005600EE00D1FC5F34E052844056825F486
:101EE000E045056005684FF6FF7606EA02263543B1
:101EF000056070BD21B1028842F00202028004E058
:101F000002884FF6FD731A400280704721B10288A3
:101F100042F00402028004E002884FF6FB731A408C
:101F20000280704721B1828842F08002828004E002
:101F300082884FF67F731A408280704702884FF67E
:101F4000F7731A40028002880A4302807047828831
:101F50004FF68F731A40828082880A4382807047CE
:101F600002894FF6F8731A40028102890A430281FE
:101F7000704702894FF67F731A40028102890A4333
:101F800002817047818470478185704781867047E0
:101F90000187704781877047A0F84010704702881A
:101FA0004FF6FF431A40028002880A4302807047BE
:101FB0000146888E70470146088F70470146888F1A
:101FC00070470146B1F8400070470146888C704761
:101FD0000146088D704702460020138A0B400BB162
:101FE000012000E000207047CA430282704730B5EC
:101FF0000246002000230024158A05EA0103958982
:1020000005EA010413B10CB1012000E0002030BD4D
:10201000CA4302827047000010B50446FB48844260
:1020200009D101218803FFF79FF800214FF4804078
:10203000FFF79AF832E0F648844209D101214804BA
:10204000FFF79FF800214FF40030FFF79AF825E0E2
:10205000F048844209D101218804FFF792F8002159
:102060004FF48020FFF78DF818E0EB48844209D147
:102070000121C804FFF785F800214FF40020FFF785
:1020800080F80BE0E548844208D101210805FFF7FC
:1020900078F800214FF48010FFF773F810BD2DE998
:1020A000F04786B005460E460024A24600BFA14672
:1020B0000027B08900B100BF2F462C8A4CF6FF7074
:1020C0000440F08804432C82AC894EF6F31004409F
:1020D000B08831890843718908430443AC81AC8AD4
:1020E0004FF6FF400440B0890443AC8201A8FEF7DC
:1020F000B4FFC648874202D1DDF810A001E0DDF848
:102100000CA0A88900F4004040B10AEBCA0000EB23
:102110000A1031684900B0FBF1F807E00AEBCA0089
:1021200000EB0A1031688900B0FBF1F86420B8FBBD
:10213000F0F004012009642101FB1089A88900F452
:10214000004040B1322000EBC900B0FBF1F000F0DC
:102150000700044308E0322000EB09106421B0FBC3
:10216000F1F000F00F0004432C8106B0BDE8F087C9
:102170004FF41651016000218180C18001810C2142
:10218000418100218181704710B502460020108AEC
:102190004FF2FF0318400B884C8823438C8823435D
:1021A000CC8823431843108210BD00210180418058
:1021B0008180C180704721B1828942F400528281BE
:1021C00004E082894DF6FF731A4082817047F0B5B2
:1021D0000346002400260025002040F66A17B94275
:1021E00000D100BF1846C1F3421401F01F060127B9
:1021F00007FA06F5012C01D10C3004E0022C01D1C4
:10220000103000E014301AB107682F43076002E075
:102210000768AF430760F0BD1AB1838A0B4383821E
:1022200002E0838A8B4383827047028A4FF6F07301
:102230001A400282028A0A430282704782894FF260
:10224000FF731A40828182890A438281704721B1DB
:10225000828942F00202828104E082894FF6FD7396
:102260001A4082817047028A4FF6DF731A40028259
:10227000028A0A430282704721B1028A42F48042F4
:10228000028204E0028A4BF6FF731A400282704712
:10229000C1F308028280704701468888C0F30800B5
:1022A0007047818941F0010181817047028BD2B270
:1022B0000283028B42EA012202837047028B02F4FE
:1022C0007F420283028B0A430283704721B1828AD4
:1022D00042F02002828204E0828A4FF6DF731A40C5
:1022E0008282704721B1828A42F01002828204E029
:1022F000828A4FF6EF731A408282704721B1828A38
:1023000042F00802828204E0828A4FF6F7731A4094
:102310008282704721B1828942F40042828103E0C7
:102320008289C2F30E028281704721B1828A42F40F
:102330000062828204E0828A4FF2FF731A40828236
:102340007047828A4FF6FB731A408282828A0A4360
:102350008282704721B1828A42F00202828204E0C6
:10236000828A4FF6FD731A4082827047024600202F
:10237000B1F5007F00D100BF13880B400BB10120E5
:1023800000E00020704701F40072B2F5007F00D138
:1023900000BFCA430280704770B502460024002384
:1023A0000025002040F66A16B14200D100BFC1F3FB
:1023B000421501F01F03012606FA03F3012D02D195
:1023C0009689334006E0022D02D1168A334001E09F
:1023D000968A33400C12012606FA04F4168834401B
:1023E00013B10CB1012000E0002070BD10B5002237
:1023F000002340F66A14A14200D100BF0A12012452
:102400009440A3B2DC43048010BD000000380140BA
:102410000044004000480040004C00400050004094
:10242000F8B505460E46FE4F04200090FEF7A7F8CB
:102430003520FEF73FFB3846FEF7E6F800909DF8A2
:102440000000042813D1002408E055F82410384671
:10245000FEF7AAF900903F1D601CC4B2B44203DA33
:102460009DF800000428F0D0FEF795F801E0002068
:10247000F8BD9DF80000042801D10120F8E70020F4
:10248000F6E710B50246E64B002005E01C6842F86E
:1024900020401B1D441CE0B28842F7DB10BD00B594
:1024A0008C21E048FFF7EDFF00BD10B58C21DD4821
:1024B000FFF7E7FFDB48DC490860007C08B101203A
:1024C00000E00020D9490870D648407CD8490870FF
:1024D000D448408AD7490880D2484069D649086024
:1024E0004FF40072CF491831D44801F03DFD10BDC2
:1024F00010B5CD480168CB4801F05AFDCB480078B3
:10250000C8490874CA4800784874CA480088488294
:10251000C948006848614FF40072C849C148183082
:1025200001F022FD8F21BF48FFF77AFF10BD10B5E3
:10253000C3A0BD4908600020BC4908700820BC4900
:1025400008700002BB4908800F20BC490880B848C9
:1025500000784880B649087800EBD0714910B74A36
:1025600091800320B949088022E0B8490988891E72
:10257000B24A32F8111001EB410000EBD071C1F307
:102580004F01B24B1B8822F813101146AF4A128834
:1025900031F8120000EBD0714910A84BAB4A1288F9
:1025A000521C23F81210A9480088801CA7490880F3
:1025B000A6480088FF28D8DBFFF79AFF10BD70B54A
:1025C00005460C4615B1012D0AD104E02146A0A014
:1025D00002F0B0F804E021469E4801F05DF900BF2A
:1025E00000BF8021204601F0D8FC70BD1FB500203F
:1025F00000900190029003908B4897A10268684672
:1026000002F0A8F86946934801F046F91FBD10B5DD
:10261000012001F09CFC93A002F08CF810BD10B5D5
:10262000002001F094FC91A002F084F810BD10B5D8
:102630007E48007880F001007C49087008460078E8
:1026400078490874FFF754FF10BD10B50446082CF4
:1026500036D006DC012C09D0022C15D0042C59D11F
:1026600020E0102C3AD0202C54D145E02021814884
:10267000FEF753FB40217F48FEF74FFB4FF400610C
:102680007C48FEF74AFB45E020217A48FEF743FBF1
:1026900040217848FEF741FB4FF400617548FEF792
:1026A0003CFB37E020217348FEF737FB402171489F
:1026B000FEF731FB4FF400616E48FEF72EFB29E078
:1026C00020216C48FEF727FB40216A48FEF723FBD8
:1026D0004FF400616748FEF720FB1BE020216548AE
:1026E000FEF71BFB40216348FEF717FB4FF4006128
:1026F0006048FEF710FB0DE020215E48FEF70BFB63
:1027000040215C48FEF707FB4FF400615948FEF793
:1027100002FB00BF00BF10BD70B5044642F210704E
:1027200090FBF4F085B2284601F095FA70BD0021C7
:1027300000BF00E0491C40F271224243B1EB820F1E
:10274000F8D3704710B500204B49087001204B4961
:10275000087001214A48FFF781F935480078FFF7F2
:1027600074FF34480088FFF7D7FF10BD10B5012073
:1027700041490870414908700020424908700846E4
:102780000078012101EB40002C4931F810003E494E
:1027900008803C480078022101EB4000274931F8CD
:1027A00010003A49086038480088FFF7B5FF4FF439
:1027B00080713048FEF7B1FA1C48007820B18021C2
:1027C0002C48FEF7AAFA03E080212A48FEF7A3FA74
:1027D00010212848FEF7A1FA3220FFF7A8FF0120B8
:1027E00001F028FA10BD10B501202349087000201F
:1027F000224908702349087008460078012101EB3E
:1028000040000E4931F810001F4908801D4800782B
:10281000022101EB4000094931F810001B4937E063
:1028200000FC00087C000020300000203400002064
:10283000350000203800002044000020AC020020B9
:102840005353466F637573657200000040000020AB
:10285000257300000044004041542B4E414D453D3E
:10286000257300004F70656E65640000436C6F73E4
:102870006564000000080140610000206200002043
:10288000002C01403F0000203A00002054000020AE
:102890000860FC480088FFF73FFF4FF48071FA485A
:1028A000FEF73BFAF948007820B18021F648FEF7A0
:1028B00032FA03E08021F448FEF72FFA1021F248A3
:1028C000FEF72BFA3220FFF732FF012001F0B2F9B8
:1028D00010BD10B5EE480068EE490968884202DD77
:1028E000FFF744FF01E0FFF77EFF10BD10B50020A9
:1028F00001F0A0F90020E8490870E849087010BD0F
:1029000010B5002001F096F90020E349087010BDD1
:1029100010B5FFF7EBFFFFF7EBFD10BD0146FF29F8
:1029200002DA481CC0B270470020FCE72DE9F041F4
:1029300005460C46002700262021D94801F02DFB32
:1029400000BF2078285C232807D1012F04D1002064
:10295000D3498855022700E00327012F05D12078AD
:10296000285CCF498855701CC6B22078285C3A286C
:1029700001D1012700262078FFF7D0FF2070012F1A
:10298000DFDD00BF00BF3046BDE8F0812DE9FE432A
:1029900007460C46154629462046FFF7C7FF012883
:1029A00002DA0020BDE8FE838021BE4801F0F5FA7E
:1029B000BB480078462871D1B948407856286ED077
:1029C0001ADC47286CD00EDC42286BD006DC2B28A2
:1029D0003CD02D284ED03F2875D12AE0432874D012
:1029E0004428F9D19CE04D3807286CD2DFE800F08C
:1029F000C86B6BF2F1F0EF006D2875D00CDC63282A
:102A00007FD004DC592871D05A28E5D156E26428D9
:102A10006DD06728E0D197E0742869D004DC702875
:102A200067D07228D8D1BCE1762875D07A28D3D166
:102A300075E29D4803689D489DA10268994801F090
:102A400089FE98493846FFF7BAFDAEE29BA195484A
:102A500001F080FE93493846FFF7B1FDFFF746FFCE
:102A600002208E490870974800688A490860FFF77D
:102A70007DFE9AE294A18B4801F06CFE89493846AC
:102A8000FFF79DFDFFF732FF0220844908708D4853
:102A9000006880490860FFF7A6FE86E286E2BDE195
:102AA00047E0FFE78AA17F4801F054FE7D493846A0
:102AB000FFF785FD7A49891C8748006801F078FA9C
:102AC000FFF794FD71E267E2FFE784A1754801F02A
:102AD00041FE74493846FFF772FD7148807831280D
:102AE00008D1FFF794FD0BE092E00AE0D7E114E093
:102AF00079E1BAE06A488078302801D1FFF78FFD8C
:102B000053E26748801C01F05CFA76490880084669
:102B1000008801F01CFA48E2B1E1FFF780FD44E2D1
:102B200071A1604801F016FEFFF7E0FEFFF7FFFC21
:102B30003BE26FA15B4801F00DFE5A493846FFF7B2
:102B40003EFDFFF7D5FC30E2FFF7AFFC6A48008896
:102B50006A49097890FBF1F66948407C6849097C2C
:102B6000CDE90106009150480368504865A102680C
:102B70004C4801F0EFFD4B493846FFF720FD14E2C9
:102B800065A1484801F0E6FD46493846FFF717FDC4
:102B90004348801C01F015FA614908700846007826
:102BA00056490978884232D0FFF7A0FE5C48007889
:102BB000082813D006DC01280DD002280CD00428E8
:102BC00024D10AE010280AD020281FD108E0F3E021
:102BD000C6E0BAE027E000BF00BF00BF00BF00BFF3
:102BE000384800684E49097848434449097890FBC1
:102BF000F1F0344908604A480078404908700846B6
:102C00000078FFF722FDFFF773FC00BF00BFCCE1A7
:102C10003A48027843A1234801F09CFD21493846F7
:102C2000FFF7CDFCC1E141A11E4801F093FD1D4914
:102C30003846FFF7C4FCFFF759FE224800681549E3
:102C400008601748801C01F0BCF92C4909784843FA
:102C50000F4908600F4800680968884204D00120C5
:102C60000E490870FFF735FE9FE1164800682349BA
:102C7000097890FBF1F62F48007800900648037819
:102C8000324659E03A00002000080140340000209C
:102C9000500000204C00002061000020480000206F
:102CA000AC040020CC0400202C00002028000020D0
:102CB0003A3F25737E2573230D0A00003A2B230D1E
:102CC0000A000000440000203A2D230D0A000000F5
:102CD0003A42230D0A000000300000203A43230D41
:102CE0000A0000003C0000203A44230D0A000000C6
:102CF0003A47230D0A00000038000020350000206C
:102D00007C0000203A6725737E25737E25647E252E
:102D1000647E2564230D0A003A4D230D0A0000004D
:102D2000360000203A6D2564230D0A003A50230D29
:102D30000A00000060000020E0A1E44801F00AFD64
:102D4000E2493846FFF73BFC2FE1E1A1DF4801F003
:102D500001FDDE493846FFF732FCFFF7C7FD24E1ED
:102D6000DDA1DA4801F0F6FCD8493846FFF727FC28
:102D7000FFF7BCFDDA488078312801D1012000E05E
:102D80000020D8490978484050B1D548807831288A
:102D900001D1012000E00020D2490870FFF7A8FB14
:102DA00003E1D0480278D0A1C84801F0D3FCC7495C
:102DB0003846FFF704FCF8E0CDA1C44801F0CAFC96
:102DC000C2493846FFF7FBFBFFF790FDC448801C63
:102DD00001F0F7F8C84909784843C849086001205C
:102DE000C7490870E1E0C748007860B100F059FEBB
:102DF000064601F076F9804642460B46C2A1B3482A
:102E000001F0A8FC05E0C34AC34BBFA1AF4801F0E5
:102E1000A1FCAE493846FFF7D2FBC6E0BFA1AB48E4
:102E200001F098FCA9493846FFF7C9FBAC48801C63
:102E300001F0C7F8BB49088008460088BA490988EC
:102E400088421BD0B7480088AB490978884215DB17
:102E5000A948007800EB4001C1EBC010B1490988D6
:102E6000B1EB800F0ADCAF480088A34909784843DA
:102E7000AD49088008460088FFF74EFC95E0AA4857
:102E800000889D49097890FBF1F63246A7A18F484A
:102E900001F060FC8D493846FFF791FB85E0A5A164
:102EA0008A4801F057FC89493846FFF788FB8C486F
:102EB000801C01F086F8A149086076E0A0A1834853
:102EC00001F048FC81493846FFF779FB8448807857
:102ED000452802D1FFF70CFB20E08148807842288A
:102EE0000AD1FFF703FD0020974908704FF4807165
:102EF000964801F052F808E079488078442804D1D7
:102F000091480078401C904908707548C01C01F039
:102F100058F88E498C4A127821F8120045E00026B4
:102F20008A4802888AA1694801F014FC674938463A
:102F3000FFF745FB00208B49088026E08948008880
:102F4000022101EB4000814931F810000644854818
:102F500000960088022101EB40007C4931F81030D6
:102F600080480088012101EB4000784931F81020A9
:102F70007DA1564801F0EEFB54493846FFF71FFB90
:102F800078480088401C7749088070480088754957
:102F900009888842D2DC08E077A14C4801F0DAFBCE
:102FA0004A493846FFF70BFB00BF00BF0120F9E498
:102FB00008B500F061FE00F0A5FA00F02AFB00F071
:102FC00031FE00F013FF00F002FC00F062FD18B1CA
:102FD00000204C49087004E000F063FD01204949DD
:102FE0000870FFF75CFA6648007C012803DC64483F
:102FF000407C012801DAFFF79AFAFFF756FAFFF74B
:10300000A1FB00F09EFF58E009E05E480078401EFA
:103010005C4908705C4A5D490020FFF7B7FC5948DD
:1030200000780028F1DC09E059480078401E584932
:103030000870584A58490120FFF7A8FC5448007806
:103040000028F1DC55480078012804D0022803D07C
:10305000032803D101E004E003E002E0FFF746FCAF
:1030600000BF00BF4E480068401C4D49086008463C
:1030700000683249096888421FD3204800681E4909
:10308000097890FBF1F41E480078009045480378D9
:1030900022460AA10D4801F05DFB0C49AFF6500035
:1030A00001F048FB0949404800F0F6FB8021074841
:1030B00000F073FF00203A490860A5E73A702564E4
:1030C0007E25647E2564230D0A000000CC040020C8
:1030D0003A51230D0A0000003A52230D0A00000065
:1030E000AC040020340000203A722564230D0A004D
:1030F0003A53230D0A000000350000204400002050
:1031000060000020630000203A74252E3266230DF3
:103110000A00000052B81E85EB3F8F403A56230D3F
:103120000A0000003A000020380000203A762564AA
:10313000230D0A003A59230D0A0000005C0000200C
:103140003A5A230D0A0000003E000020AC02002085
:103150003A7A546F74616C3A25642D2D2D230D0A33
:1031600000000000400000203A7A25642C25642CE1
:103170002564230D0A0000003A55230D0A000000C3
:103180007C00002066000020640000204C05002028
:1031900067000020650000204C0600204800002049
:1031A000580000206100002000440040704700BF2C
:1031B000FEE700BFFEE700BFFEE700BFFEE7704787
:1031C0007047704710B50121A348FEF710FF002893
:1031D0007ED0A2480078002853D0A148007800286B
:1031E0004FD0A0480068401C9E4908609E48007867
:1031F000012806D19D4800680968884201DCFFF774
:1032000075FB9B4800889B490988884238DA9A48B0
:1032100000889A490978884232DD924800689849C6
:103220000968401A97490968884229DB9348007861
:10323000401C9249087008460078012101EB4000CB
:103240008D4931F810008A4908808C4800780221A5
:1032500001EB4000884931F810008A4909680844A8
:10326000884908608248008882490988884203DDCD
:10327000804800887E4908807D480088FFF74CFA26
:1032800058E076480078002854D075480078002827
:1032900050D174480068401E724908607248007836
:1032A000012806D1714800680968884201DBFFF7F0
:1032B0001DFB6F4800886F49098888423ADA6E48DA
:1032C00000886E490978884234DD6D48006800E066
:1032D00034E064490968401A6A490968884229DB70
:1032E00066480078401C654908700846007801214E
:1032F00001EB4000604931F810005D4908805F48EB
:103300000078022101EB40005B4931F810005D4973
:10331000096808445B490860554800885549098890
:10332000884203DD5348008851490880504800888E
:10333000FFF7F2F901214848FEF76AFE10BD10B50B
:1033400000F0FFF810BD10B540F225514E48FFF7D0
:1033500023F880B34C48FEF79FFF4C494C4A127843
:10336000885408464A490978405C3A2803D14848BD
:1033700000784849087046480078FFF7CFFA464978
:103380000978884206D143480078434908700020F4
:10339000424908703D483E490978405C232804D1E1
:1033A0003E480078401C3D49087039480078FFF7D6
:1033B000B5FA3749087010BD10B540F225513848AC
:1033C000FEF7EAFF80B33648FEF766FF3549364A16
:1033D00012788854084634490978405C3A2803D169
:1033E00031480078314908702F480078FFF796FA85
:1033F0002F490978884206D12C4800782C4908705A
:1034000000202C490870274827490978405C232868
:1034100004D128480078401C2649087022480078CA
:10342000FFF77CFA2049087010BD10B50120FDF7A8
:103430006DF820B1FFF76CFA0120FDF778F810BDA8
:1034400010B50220FDF762F820B1FFF761FA022003
:10345000FDF76DF810BD0000002C01406100002058
:10346000620000204400002048000020500000209E
:103470003A00002038000020AC0200203F0000206D
:103480004C00002054000020003801404C05002072
:10349000700000206800002064000020660000200A
:1034A000004400404C06002071000020690000200C
:1034B000650000206700002030B50146B1F1807F33
:1034C00001D3012030BD21F07F40401E4FF0E022AB
:1034D000506150170F22002807DA13071D0E3E4BCC
:1034E00000F00F04241F1D5503E013071C0E3B4B77
:1034F0001C5400BF00204FF0E022906107201061B3
:103500000020DFE710B5364800683649B0FBF1F41B
:103510002046FFF7D1FF08B100BFFEE710BD01B59F
:103520003149009808604FF0E020006940F0010048
:103530004FF0E021086100BF2B4800680028FBD154
:1035400008BD2948006820B127480068401E264968
:103550000860704731B5224800682249B0FBF1F598
:103560002846FFF7A9FF002408E000BF4FF0E02045
:10357000006900F480300028F8D0641C0098844270
:10358000F3D34FF0E020006920F001004FF0E0217C
:10359000086138BD31B5124800684FF47A71B0FB4C
:1035A000F1F52846FFF788FF002408E000BF4FF040
:1035B000E020006900F480300028F8D0641C0098F6
:1035C0008442F3D34FF0E020006920F001004FF077
:1035D000E021086138BD000018ED00E000E400E0E3
:1035E0000000002040420F006C00002008B54FF49E
:1035F000A060FCF7A9FE25208DF8000001208DF8C1
:1036000001008DF802008DF803006846FCF7A1FE6A
:1036100008BD00B585B001210420FDF78BFD012117
:103620008803FDF787FD4FF40070ADF810001820F7
:103630008DF8130003208DF8120004A95648FDF7F9
:10364000BDFA4FF48060ADF8100004208DF813002F
:1036500004A95148FDF7B2FA4FF41650009000202B
:10366000ADF80400ADF80600ADF80800ADF80C00A8
:103670000C20ADF80A0069464848FEF710FDFFF738
:10368000B5FF012240F225514448FEF7A0FD01217B
:103690004248FEF790FD05B000BD70B504460D46EA
:1036A00029462046FEF7F4FD00BF80212046FEF7A4
:1036B0005DFE0028F9D070BD2DE9F04107460D46AA
:1036C0001646002405E0295D3846FFF7E6FF601C3A
:1036D000C4B2B442F7DB00BF40213846FEF746FED5
:1036E0000028F9D0BDE8F08170B506460C460025EB
:1036F00000BF615D3046FFF7D0FF6D1C605D0028A4
:10370000F7D100BF40213046FEF730FE0028F9D047
:1037100070BD2DE9F04105460C46260AE7B2314658
:103720002846FEF7B5FD00BF80212846FEF71EFEA5
:103730000028F9D039462846FEF7AAFD00BF8021AF
:103740002846FEF713FE0028F9D0BDE8F0810020DE
:10375000134908701349124A12788854704770B59B
:1037600004460D46E1B20D48FEF792FD00BF8021F0
:103770000A48FEF7FBFD0028F9D0204670BD10B5C1
:10378000044600BF20210548FEF7F0FD0028F9D0CF
:103790000248FEF781FD10BD0008014000380140DD
:1037A000700000204C05002008B54FF4C060FCF705
:1037B000CBFD26208DF8000001208DF801008DF84A
:1037C00002008DF803006846FCF7C3FD08BD00B594
:1037D00085B001214804FDF7BAFC01210420FDF762
:1037E000A9FC0420ADF8100018208DF81300032068
:1037F0008DF8120004A93A48FDF7E0F90820ADF869
:10380000100004208DF8130004A93548FDF7D6F9FF
:103810004FF4164000900020ADF80400ADF806000B
:10382000ADF80800ADF80C000C20ADF80A006946B0
:103830002C48FEF734FCFFF7B7FF012240F2255178
:103840002848FEF7C4FC01212648FEF7B4FC4021BD
:103850002448FEF798FD05B000BD70B504460D463E
:1038600029462046FEF714FD00BF80212046FEF7C2
:103870007DFD0028F9D070BD2DE9F04107460D46C9
:103880001646002400BF295D3846FFF7E6FF641C9A
:10389000B442F8D3BDE8F08170B506460C46002569
:1038A00000BF615D3046FFF7D8FF6D1C605D0028EA
:1038B000F7D170BD01460C48007808800B4870476E
:1038C00040F201100021084A117005E00022411E5B
:1038D00089B20846054B5A540028F7D170470000BA
:1038E0000008014000440040710000204C06002008
:1038F00008B501210420FDF71DFC0120ADF80000F2
:1039000010208DF8030003208DF8020069468548D9
:10391000FDF754F901218348FDF7FDF908BD08B50D
:103920000120ADF8000048208DF8030069467D486D
:10393000FDF744F908BD08B50120ADF800001020DE
:103940008DF8030003208DF8020069467548FDF7E5
:1039500035F908BD10B5FFF7EEFF01217148FDF7FD
:10396000DCF940F2EE20FFF7DAFD01216D48FDF7AA
:10397000D2F90F20FFF7D3FD10BD10B50024FFF7DB
:10398000CEFF04E0601CC4B20120FFF7C8FD012196
:103990006448FDF7A6F908B1642CF3DB642C01DB65
:1039A000012010BD002404E0601CC4B20120FFF718
:1039B000B6FD01215B48FDF794F908B9F02CF3DB63
:1039C000F02C01DB0120ECE70020EAE710B5FFF75F
:1039D000B2FF01215348FDF7A0F90A20FFF79FFD30
:1039E000FFF79DFF01214F48FDF77BF9012801D129
:1039F000012400E000242D20FFF791FD204610BD9A
:103A000070B50026002408E0FFF7E0FF054605FA40
:103A100004F03043C6B2601CC4B2082CF4DB30465C
:103A200070BD70B50446FFF786FF002522E004F064
:103A30000106641076B101213A48FDF76EF90820BD
:103A4000FFF76DFD01213748FDF765F93A20FFF7D3
:103A500066FD0DE001213348FDF75FF94620FFF7D1
:103A60005EFD01212F48FDF756F90220FFF757FDB3
:103A7000681CC5B2082DDADB70BD10B5FFF76AFF10
:103A8000FFF77BFFCC20FFF7CCFF4420FFF7C9FFF7
:103A900010BD10B5FFF72CFFFFF75CFFFFF76DFFC0
:103AA00010BD2DE9F05FFFF755FFFFF766FFCC2053
:103AB000FFF7B7FF4420FFF7B4FFFFF74BFFFFF717
:103AC0005CFFCC20FFF7ADFFBE20FFF7AAFFFFF79A
:103AD00097FF8346FFF794FF82464FEA0A2004B21D
:103AE00044EA0B04002C0DDAE043401C00F0E8FA35
:103AF000074600220C4B00F071FA054600F004FB6B
:103B000081460BE0204600F0DBFA07460022064B18
:103B100000F064FA054600F0F7FA81464846BDE831
:103B2000F09F0000000801400000B03F08B50121EF
:103B30004E48FDF714F901210420FDF7FBFA4FF47C
:103B40008070ADF8000018208DF8030003208DF878
:103B5000020069464648FDF731F808BD08B54FF444
:103B6000E060FCF7F1FB19208DF8000000208DF8D3
:103B7000010002208DF8020001208DF80300684644
:103B8000FCF7E7FB08BD00B587B00121C802FDF7CF
:103B9000D1FA42F20F70ADF8140041F61F40ADF8B3
:103BA00010000020ADF81600ADF812008DF81800D6
:103BB00004A93048FDF7F6FB7020ADF800000120A5
:103BC000ADF802000020ADF8040041F28730ADF8F6
:103BD00006000220ADF808000020ADF80C00694690
:103BE0002448FDF71CFC08212248FEF767F8012154
:103BF0002048FEF733F801211E48FEF787F901211E
:103C00001C48FEF7F1F9012211461A48FDF741FF61
:103C100000211848FDF722FF00211648FDF72AFF72
:103C200007B000BD10B5FFF781FFFFF797FFFFF763
:103C3000AAFF10BD10B5044644B900210D48FDF798
:103C400019FF10210A48FDF766F803E00121094831
:103C5000FDF710FF10BD10B5044621460548FEF7DC
:103C600093F961100348FEF791F910BD400016006A
:103C700000080140002C014008B501210846FDF76D
:103C800059FA01214948FDF76AF801210C20FDF796
:103C900051FA01210C20FDF74DFA01210420FDF716
:103CA00049FA01210420FDF745FA4FF48070ADF880
:103CB000000010208DF8030003208DF802006946F3
:103CC0003B48FCF77BFF8020ADF80000694639488F
:103CD000FCF774FF4FF40040ADF80000694634482B
:103CE000FCF76CFF4FF48060ADF800006946304887
:103CF000FCF764FF1020ADF8000069462D48FCF782
:103D00005DFF2020ADF8000069462A48FCF756FF09
:103D10004020ADF8000069462648FCF74FFF4FF4FD
:103D20000060ADF8000069462248FCF747FF4FF4F9
:103D30008040ADF8000069461E48FCF73FFF4FF495
:103D40000050ADF8000069461A48FCF737FF4FF401
:103D500080711748FCF7DFFF80211648FCF7DBFF76
:103D60004FF400411248FCF7D6FF4FF48061104831
:103D7000FCF7D1FF10210F48FCF7CDFF20210D48A3
:103D8000FCF7CBFF40210B48FCF7C7FF4FF4006165
:103D90000848FCF7C2FF4FF400510648FCF7BBFF90
:103DA0004FF480410348FCF7B6FF08BD0004300023
:103DB000000C01400008014008B54FF4E060FCF73A
:103DC000C3FA06208DF8000000208DF801000120C4
:103DD0008DF802008DF803006846FCF7BAFA072058
:103DE0008DF800006846FCF7B4FA08BD0EB5012155
:103DF0000920FDF79FF901210920FDF79BF9FFF745
:103E0000DBFF0120ADF8080048208DF80B0002A967
:103E10001848FCF7D3FE00210120FCF7E5FF012044
:103E2000009000208DF804000C208DF80500012082
:103E30008DF806006846FCF703FB0220ADF8080089
:103E400048208DF80B0002A90A48FCF7B7FE0121B3
:103E50000846FCF7C9FF0220009000208DF80400FE
:103E60000C208DF8050001208DF806006846FCF74F
:103E7000E7FA0EBD000C014008B501210846FDF728
:103E800059F901213648FCF76AFF01210820FDF7A6
:103E900051F90820ADF8000018208DF80300032028
:103EA0008DF8020069462F48FCF788FE08BD00B572
:103EB00087B001210846FDF74AF9C720ADF8140084
:103EC00041F61F40ADF810000020ADF81600ADF827
:103ED000120004A94FF08040FDF764FA7020ADF89D
:103EE00000000120ADF802006320ADF806000220BA
:103EF000ADF808000020ADF80C0069464FF0804096
:103F0000FDF7CFFA0821C806FDF7E1FE0121880779
:103F1000FDF7A4FE01218807FDF7F8FF01218807BE
:103F2000FEF762F8012211469007FDF7B2FD01216C
:103F30008807FDF793FD01218807FDF79BFD07B07A
:103F400000BD10B5FFF798FFFFF7B1FF10BD10B52A
:103F5000044621464FF08040FEF71AF810BD0000DD
:103F600000031800000C014040EA01039B0703D046
:103F700009E008C9121F08C0042AFAD203E011F8A8
:103F8000013B00F8013B521EF9D27047D2B201E06A
:103F900000F8012B491EFBD270470022F6E710B54E
:103FA00013460A4604461946FFF7F0FF204610BDA7
:103FB000034611F8012B00F8012B002AF9D118460D
:103FC000704770B5064600F0D9FB046805460A2222
:103FD0000021304600F0FBF82C6070BD2DE9FE4F4B
:103FE00081EA030404F0004421F0004100944FF002
:103FF000000B23F0004350EA01045ED052EA0304B0
:104000005BD0C3F30A54C1F30A552C44A4F2F33431
:104010000194A0FB0254C1F3130141F48011C3F3D6
:10402000130343F4801301FB024400FB034E840A94
:10403000970A44EA815447EA8357A4FB076802952C
:104040008D0A05FB07854FEA932C04FB0C542705CA
:10405000029D4FEA065847EA1637B5EB08056EEBA6
:10406000070C870E920E47EA811742EA8312A7FBDC
:104070000201B6EB0B0164EB00042B0D43EA0C3399
:104080005E1844EB1C50DA465146E7FB0201C5F3CB
:1040900013044FEA0B3343EA14534FEA0432019CF2
:1040A00043EA0603A4F10C040294009CCDE900B499
:1040B00000F009F903B0BDE8F08F00200146F9E7F0
:1040C0000EB5C10F80EAE0700844CA07002140F233
:1040D00033438DE80E000A460B4600F0F4F803B0B7
:1040E00000BD00F0004230F000400AD0C10D01F5E3
:1040F0006071C0F3160042EA0151C2084007114343
:10410000704700200146704701F0004330B421F0B1
:10411000004150EA010206D00A0DA2F56072C1F317
:104120001301002A02DC30BC00207047440F44EA2F
:10413000C104C100E01830BC00EBC25000F07FB8F1
:1041400030B50B46014600202022012409E021FA67
:1041500002F59D4205D303FA02F5491B04FA02F564
:104160002844151EA2F10102F1DC30BD2DE9F05FFB
:104170000546002092469B468846064681464024D6
:104180001BE0284641464746224600F04EFA534679
:104190005A46C01A914110D311461846224600F0E3
:1041A00035FA2D1A67EB01084F46224601200021FF
:1041B00000F02CFA17EB00094E41201EA4F1010477
:1041C000DFDC484631462A464346BDE8F09F2DE9EC
:1041D000F04791460F4680460446002614F8015BDE
:1041E0002DB100F045FA0068405DC007F6D12B2DD7
:1041F00002D02D2D18D0641E4A463946204600F0C4
:104200003BFA27B13968A14201D1C7F80080710596
:104210004FF002040BD54042002803DD00F0AEFA57
:104220000460A007BDE8F08746F48066E4E7002854
:10423000F8DA00F0A3FA04606FF00040F2E700291A
:10424000A8BF7047401C490008BF20F0010070471C
:1042500010B4B0FA80FC00FA0CF050EA010404BF7C
:1042600010BC704749B1CCF1200421FA04F411FAD2
:104270000CF118BF012121430843A3EB0C01CB1D16
:104280004FEA00614FEA102042BF002010BC704787
:1042900000EBC35010440029A4BF10BC7047401C61
:1042A000490008BF20F0010010BC704710B5002B7A
:1042B00008DA401C41F1000192185B411A4301D118
:1042C00020F0010010BD2DE9F04D92469B4611B142
:1042D000B1FA81F202E0B0FA80F22032904600F0AA
:1042E00095F904460F4640EA0A0041EA0B0153469D
:1042F0005A46084313D0114653EA010019D0C8F1B9
:104300004002504600F091F905460E465046594687
:10431000424600F07BF9084305D0012004E0204626
:104320003946BDE8F08D0020054346EAE0762C438F
:1043300037430A986305E40AA0EB08000022FD0A4F
:1043400044EA47540A3002D500200146E9E7010556
:1043500010196941DDE9084500196941BDE8F04DD2
:10436000A4E72DE9FE4F804681EA0300C00F0C460A
:10437000009021F0004123F00045B8EB0200A94174
:1043800005D24046214690461C460B46024623F085
:104390000040104347D0270DC7F30A00C3F30A516A
:1043A0000290401A019040286BDAC3F3130040F4E6
:1043B000801B0098924620B10023D2EB030A63EBE6
:1043C0000B0B01985946C0F14002504600F01EF90F
:1043D00006460D4650465946019A00F036F910EB54
:1043E00008006141002487EA115284EAE7731A4306
:1043F00040D0009A62B3019A012A4FEA075215DCB5
:10440000001B61EB02014FF0004202EA0752CDE9C6
:104410000042001C41F5801132462B46FFF753FF46
:1044200003B0BDE8F08F40462146F9E7001B61EB81
:104430000201001C41F5801300185B412018A2F511
:10444000001747EB030140EAD570B6196D4111E042
:104450006D084FEA360645EAC0754FEA0752001B61
:1044600061EB0201001C41F5801149084FEA300060
:104470000019514132462B4603B0BDE8F04FFFF71B
:1044800015BF0098012240000023D0EB020263EB2D
:10449000E073009821464FEAE074B8EB000061EB4E
:1044A0000401E9E783F000435BE781F0004158E74E
:1044B0002DE9F04D81EA030404F0004B21F00045A2
:1044C00014464FF0000A23F0004150EA050220D0C4
:1044D00054EA01021DD0C5F30A570246C5F313037F
:1044E000C1F31300C1F30A5640F4801543F480135E
:1044F000A7EB0608101BD64608F2FD3873EB050043
:1045000002D308F1010801E092185B41B8F1000FF5
:1045100003DA00200146BDE8F08D00204FF4801141
:10452000064684460EE0171B73EB050705D3121BE6
:1045300063EB050306434CEA010C49084FEA3000DF
:1045400092185B4150EA0107EDD152EA030012D004
:1045500082EA040083EA0501084305D0101BAB4141
:1045600006D20122002306E000224FF0004302E0C1
:104570006FF0010253101AEB06004CEB085110EBE0
:104580000A0041EB0B01BDE8F04DFFF78FBEC1F310
:104590000A52C1F3130140F2FF3341F480119A42F1
:1045A00002DA00200146704740F233439A42A2F2F9
:1045B000334202DC524200F038B800F027B8000065
:1045C00030B5002904DB4FF00044404264EB0101A8
:1045D000002B04DB4FF00044524264EB030399428A
:1045E00008BF904230BD0000064C074D06E0E06871
:1045F00040F0010394E8070098471034AC42F6D32A
:10460000FBF79AFDDC500008FC500008202A04DB70
:10461000203A00FA02F1002070479140C2F12003D5
:1046200020FA03F3194390407047202A04DB203A14
:1046300021FA02F00021704721FA02F3D040C2F1C2
:1046400020029140084319467047202A06DBCB1709
:10465000203A41FA02F043EAE07306E041FA02F33D
:10466000D040C2F120029140084319467047000033
:1046700000487047C45000082DE9F05F824600787A
:10468000002715468B460AF10104B946302801D0AF
:104690009DB113E014F8010B0127782803D05828A6
:1046A00001D045B10AE00DB1102D07D1002710252A
:1046B00014F8010B02E0082500E00A250026B046A8
:1046C0000EE005FB080005FB06F1012701EB104693
:1046D0001FFA80F8B6F5803F00D3B94614F8010BF5
:1046E000294600F018F80028EBDABBF1000F05D0DE
:1046F0000FB1641E00E05446CBF80040B9F1000F42
:1047000006D000F03BF802210160C81EBDE8F09F12
:1047100048EA0640FAE73A2800D2303820F0200272
:10472000412A01D3A2F13700884201D34FF0FF3074
:10473000704700000FB4054B10B503A9044A029856
:1047400000F0E2F810BC5DF814FB00005F370008D1
:10475000740000200FB4084B10B504A902AA0398F6
:1047600000F0D2F8044602A9002000F064FC2046C4
:1047700010BC5DF814FB000037500008004870477B
:104780007800002002E008C8121F08C1002AFAD1F0
:1047900070477047002001E001C1121F002AFBD1C1
:1047A000704700002DE9FF5FDDE90220010DDDF813
:1047B00038B0024318D044F61050A1F2FF31414303
:1047C0000D140F98012820D0A5EB0B00401C5FEAC8
:1047D000000A4FF00004474EDFF81C91A0465046F7
:1047E00016D5CAF1000728E00F98012443A201283A
:1047F00008D0002100980F9BC0E90021C0E90243C6
:10480000BDE8FF9F6FEA0B01F4E7CBF10000DEE7A4
:10481000074612E0F80707D022463346404649468D
:10482000FFF7DCFB80468946224633461046194690
:10483000FFF7D4FB04460E467F10002FEAD1DDE9D6
:104840000201BAF1000F42464B4602DAFFF7C6FBFF
:1048500001E0FFF72DFE04460E460022284BFFF72D
:10486000AFFE03D84FF0FF30014607E00022254B92
:1048700020463146FFF775FDFFF789FE102409E059
:10488000002C0ADB0A220023FFF770FC019B303268
:104890001A55641E50EA0102F2D1641C019AC4F157
:1048A000110314440F9A012A03D0012208430DD1A9
:1048B0000AE0084304D000204FF0110B0F9080E76E
:1048C000A3EB0B056D1E0DE05B4504DD4FF0000210
:1048D00005F1010504E003DA4FF00002A5F101053E
:1048E000002AECD000980F99C0E90231C0E90045D8
:1048F00086E70000000024400000F03F3000000088
:104900000000F0430000E03F2DE9FF4F95B09B46CB
:104910008946064600250FE2252877D10024274640
:10492000F84A0121059400E0044316F8013F203BBA
:1049300001FA03F01042F7D130782A2811D06FF035
:104940002F033078A0F13002092A16D8059A44F0D6
:10495000020402EB820203EB42021044761C059033
:10496000EFE759F8042B0592002A03DA504244F489
:104970000054059044F00204761C30782E2816D19D
:1049800016F8010F44F004042A280DD06FF02F020E
:104990003078A0F13003092B09D807EB870302EB2D
:1049A0004303C718761CF3E759F8047B761C30786C
:1049B0006C280FD006DC4C2817D068280DD06A2848
:1049C00014D104E0742810D07A280FD10DE044F4FB
:1049D00000140AE044F4801401E044F440147278B6
:1049E000824202D104F58014761C761C3078662849
:1049F0000BD013DC582877D009DC002875D0452867
:104A0000F6D04628F4D047281AD19DE118E0632853
:104A100035D0642879D0652812D195E1702873D0FB
:104A200008DC6728F1D069286FD06E280DD06F2878
:104A300006D1B5E073282CD0752875D0782874D0AD
:104A40005A46179990476D1C75E1C4F3025002282D
:104A500009D003280DD0D9F8001004280DD00D601E
:104A600009F1040967E1D9F80010EA17C1E9005219
:104A7000F6E7D9F800100D80F2E70D70F0E719F8AD
:104A8000041B8DF8001000208DF80100EA4601207B
:104A900003E059F804AB4FF0FF3061074FF000011D
:104AA00002D40DE008F101018846B9420FDA8045D1
:104AB000F8DB1AF808100029F4D108E008F1010128
:104AC00088468142FADB1AF808100029F6D10598C9
:104AD0005B46A0EB080721463846179A00F094FA87
:104AE000284400EB080507E04DE029E10DE01AF845
:104AF000010B5A4617999047B8F10108F7D25B4667
:104B000021463846179A13E142E00A220092C4F384
:104B100002524FF0000A022A08D059F804CB032AA7
:104B20004FEAEC710AD00DE029E02AE009F1070113
:104B300021F00702F2E802C1914609E00FFA8CFC6D
:104B40004FEAEC71042A03D14FFA8CFC4FEAEC7166
:104B5000002907DA0A460021DCF1000C61EB0201B2
:104B60002D2202E0220504D52B228DF804200122FB
:104B700003E0E20701D02022F7E7904659E00A213E
:104B800002E010220DE010214FF0000A00910BE02E
:104B900010224FF0000A44F004040827009203E0BA
:104BA00008224FF0000A0092C4F30252022A05D0F4
:104BB00059F804CB0021032A08D009E009F10701C4
:104BC00021F00702F2E802C1914605E01FFA8CFCD1
:104BD000042A01D10CF0FF0C4FF00008220728D561
:104BE000702806D0009B83F0100353EA0A0305D017
:104BF0000EE040228DF80420012208E05CEA010268
:104C000006D030228DF804208DF80500022290464F
:104C1000009B83F0080353EA0A030AD15CEA01020D
:104C200001D1620705D530228DF804204FF001082C
:104C30007F1E582804D034A003900EA802900DE0E7
:104C400036A0F9E753466046009AFFF78FFA84468C
:104C50000398825C0298401E029002705CEA010098
:104C6000F0D1029806A9081A00F1200A600702D5BF
:104C700024F4803400E00127574502DDA7EB0A0049
:104C800000E0002000EB0A01009005984144401A22
:104C90000590E00306D45B462146179A059800F07C
:104CA000B3F90544002706E001A85A46C05D1799EC
:104CB00090476D1C7F1C4745F6DBE0030CD55B4637
:104CC0002146179A059800F09FF9054404E030202A
:104CD0005A46179990476D1C0099481E009000296C
:104CE000F5DC08E0029802995A460078491C0291C6
:104CF000179990476D1CBAF10001AAF1010AF1DC85
:104D000065E100000928010030313233343536378F
:104D10003839616263646566000000003031323307
:104D200034353637383941424344454600000000A7
:104D300000F058F90544761C307800287FF4ECAD7B
:104D400019B02846BDE8F08F620700D4062709F1A4
:104D5000070222F0070CFCE80223E14603F00048BA
:104D60005FEA080C02D00FF2702C0DE05FEA045CE1
:104D700002D50FF2682C07E05FEAC47C02D00FF284
:104D8000602C01E0AFF2700C4FF0FF3823F00043CD
:104D9000CDF850C065280CD006DC452809D046283F
:104DA0001DD047283DD13DE0662818D067287ED128
:104DB00038E00021112F01DB112000E0781CCDE943
:104DC000000106A90EA8FFF7EDFCDDE90F010E9A20
:104DD00003910021009207F1010A04914DE04FF088
:104DE00000400097CDE9011006A90EA8FFF7DAFCF4
:104DF000DDE90F0203920E9B11990022DDF80CA051
:104E00000093049211B9791C00EB010AB7EB0A0078
:104E100004D4C0F1FF3007F1010A0490AAEB0700A7
:104E2000019044E0012F00DA01270021112F01DD5C
:104E3000112000E03846CDE9000106A90EA8FFF7D1
:104E4000B1FCDDE90F010E9A03910021049100925B
:104E5000BA4621070CD40399514500DA8A46BAF1C3
:104E6000010F05DD009AAAF10101515C302908D03B
:104E7000B84202DA10F1040F06DA0121CDE901107F
:104E800015E0AAF10101E9E7002805DC04990144D5
:104E90000491AAEB000102E0411C514500DD8A4665
:104EA0000499401A401C01904FF0004002902007E6
:104EB00004D40198504501DBCDF8048000208DF822
:104EC0004F0002980DF14F07B0F1004F25D02B2075
:104ED0000E9002984FF0020800280CDA404202902F
:104EE0002D200E9007E00A210298FFF729F93031B2
:104EF000029007F8011DB8F10001A8F10108F2DCE9
:104F000002980028EFD1791E0E980870307800F0D2
:104F1000200040F0450007F8020D12A8C01B00F168
:104F200007081498007800B1012000EB0A010198ED
:104F300001EBE07105984144401A401E0590E003E2
:104F400006D45B462146179A059800F05DF80544A3
:104F50001498007818B15A46179990476D1CE003D1
:104F600024D55B462146179A059800F04DF8054474
:104F70001CE00498002807DBDDE90301884203DD1B
:104F80000098405C179901E0179930205A469047E5
:104F9000049805F10105401C04900198401E019001
:104FA00004D12E205A46179990476D1CBAF1000182
:104FB000AAF1010ADDDC05E017F8010B5A46179942
:104FC00090476D1CB8F10001A8F10108F4DC5B46C4
:104FD0002146179A0598ABE62D0000002B00000033
:104FE000200000002DE9F041044600251E4617462A
:104FF000880404D405E039462020B0476D1C641EA7
:10500000F9D52846BDE8F0812DE9F0410446002598
:105010001E469046C80301D5302700E020278804AB
:1050200004D505E041463846B0476D1C641EF9D5ED
:105030002846BDE8F0810A68531C0B601070704769
:10504000004040404040404040404141414141409B
:105050004040404040404040404040404040404050
:1050600040050202020202020202020202020202DF
:1050700002202020202020202020200202020202E4
:10508000020290909090909010101010101010103C
:105090001010101010101010101010100202020248
:1050A000020288888888888808080808080808088C
:1050B0000808080808080808080808080202020288
:1050C00040000000415000085342312E30000000E3
:1050D0005353466F6375736572000000FC500008FF
:1050E000000000207C000000844700087851000880
:1050F0007C000020D40A00009447000800A24A0463
:105100000000000000000000010203040607080977
:10511000000000000102030401020304060708095D
:1051200002040608D0500008C8500008D0500008FB
:10513000000808000008080005000000000000004A
:10514000000000000000000000000000000000005F
:105150000000000000000000400D030000000000FF
:10516000000000000000000000000000000000003F
:08517000000000000000000037
:0400000508000131BD
:00000001FF
